:100000000C94ED020C9425030C9425030C94250309
:100010000C9425030C9425030C9425030C942503C0
:100020000C9425030C9425030C943C230C940E246F
:100030000C94091D0C9425030C9425030C942503A2
:100040000C9425030C9425030C9425030C94250390
:100050000C9425030C94AE1D0C9425030C942503DD
:100060000C9425030C9425030C9425030C94250370
:100070000C9425030C9425030C9425030C94250360
:100080000C9425030C9425030C9425030C94250350
:100090000C9425030C9425030C9425030C94250340
:1000A0000C9425030C9425030C942503B306B30686
:1000B000DF06DF0640075E073F083F086307CB0700
:1000C000DC07DC0757155A159115A415AC15B715A3
:1000D000BA15BA15BA1502160216BF15C215C715FC
:1000E000D415E115E415E815F5156316D5166B164C
:1000F000351639166F163C1672167D164716CB1636
:100100004B1681164F168516AF1653168916B9165B
:1001100059168F16991640167616431679165E16DE
:100120009416A516C516C71631166716DE167B1B64
:10013000811B6F1B751B871B8D1B931B76249D24B6
:1001400095259D249525E9240C2595256325722563
:100150001F0014001A00160004001D001B000600FA
:100160002000210015000800070009001900050003
:10017000220023001C0017000A000B0011000000E1
:100180001E0029002B00E000E100E200E3002C004B
:100190002400250018000C000E000D0010000000C7
:1001A000310035002A0028002152E500E600E70072
:1001B000260027001200130033000F003600000055
:1001C0002D002E0030002F003400380037000000D2
:1001D0003B0001000100A900AA000100010001008C
:1001E0003C003D0001000100A800010001000100E9
:1001F0003E003F00010001000100550057000000D3
:100200003A00A500390001000100010001000100D1
:1002100040004100010046004A0054005600000022
:1002200049004C002A0058000100010001000100B3
:10023000420043004700480050004B004D000000C2
:1002400044004500010052004F0051004E000000E4
:100250000100010001000100010001000100010096
:100260000100010001000100010001000100010086
:100270000100010001000100010001000100000077
:100280000100010001000100010001000100010066
:100290000100010001000100010001000100000057
:1002A0000100010001000100010001000100010046
:1002B0000100010001000100010001000100000037
:1002C0000100010001000100010001000100000027
:1002D0000100010001000100010001000100010016
:1002E0000100010001000100010001000100010006
:1002F00001000100010001000100010001000000F7
:1003000001000100010001000100010001000100E5
:1003100001000100010001000100010001000000D6
:1003200001000100010001000100010001000100C5
:1003300001000100010001000100010001000000B6
:1003400001000100010001000100010001000000A6
:1003500000000000000000002A2B28000000000020
:100360000000000000000000000000290000000064
:100370002C1E3420212224342627252E362D3738D2
:10038000271E1F202122232425263333362E3738DB
:100390001F0405060708090A0B0C0D0E0F10111299
:1003A000131415161718191A1B1C1D2F3130232D65
:1003B000350405060708090A0B0C0D0E0F10111263
:1003C000131415161718191A1B1C1D2F3130354C14
:1003D000000000000000000000000000000000001D
:1003E000000000000000000000000000000000000D
:1003F000000000007E0F00D4FFFFFFC70000007860
:100400003603480048004B004200200050007200B4
:100410006F0020003200200043006F006E00740067
:1004200072006F006C006C006500720020004100DB
:100430004E0053004900000010034A00610079009B
:100440006B006500650062000000040309040902F6
:100450007B00040100A0FA0904000001030101006F
:100460000921110100012240000705810308000154
:10047000090401000203000000092111010001220A
:100480002200070582032000010705030320000165
:1004900009040200010300000009211101000122EA
:1004A0007B00070584032000010904030002030008
:1004B0000000092111010001222200070585032007
:1004C00000010705050320000112010002000000E1
:1004D00008484801000401010200010631FF0974C7
:1004E000A1010975150026FF0095207508810209F4
:1004F00076150026FF00952075089102C00660FF62
:100500000961A1010962150026FF00952075088187
:10051000020963150026FF00952075089102C005A9
:10052000010902A10185020901A10005091901299A
:10053000081500250195087501810205010930099A
:10054000311581257F9502750881060938158125A9
:100550007F950175088106050C0A38021581257FF3
:10056000950175088106C0C005010980A1018503B8
:1005700019012AB700150126B700950175108100F1
:10058000C0050C0901A101850419012AA002150169
:1005900026A002950175108100C005010906A10180
:1005A000050719E029E71500250195087501810265
:1005B0009501750881010507190029FF150026FF1F
:1005C000009506750881000508190129059505752E
:1005D000019102950175039101C011241FBECFEF57
:1005E000DAE0DEBFCDBF04B603FE18C080917C0206
:1005F00090917D02A0917E02B0917F028730904B56
:10060000A740B04B59F410927C0210927D021092D8
:100610007E0210927F02E0E0F8E3099511E0A0E08D
:10062000B1E0E6E3FDE402C005900D92AC39B107FC
:10063000D9F722E0ACE9B1E001C01D92AC37B207B6
:10064000E1F70E9420120C9499260C940000089562
:100650000E94270308950E94280308958FEF84B90C
:1006600080E485B957985F9A2E9A2F98E6EAF1E0D0
:10067000119281E0EE3AF807D9F7EEE9F1E086EA67
:1006800091E011928E179F07E1F786EA91E090932F
:10069000B1018093B0018EE991E09093AF01809316
:1006A000AE010E942B0308950E94270308950F9323
:1006B0001F93CF93DF938091AE019091AF01209172
:1006C000B0013091B1013093AF012093AE0190930E
:1006D000B1018093B001C0E0D0E001E010E080E023
:1006E00090E025B1207C2C2BAC0133E0440F551F4A
:1006F0003A95E1F7242B25B9EAE1EA95F1F700C034
:10070000E091AE01F091AF01EC0FFD1F208130E0D0
:10071000082E02C0359527950A94E2F720FD2F9AFE
:10072000F5E3FA95F1F7000066B52E9825E32A95D2
:10073000F1F700002091B0013091B101F901EC0F07
:10074000FD1F4F9B0AC0A801082E01C0440F0A9448
:10075000EAF740955081452308C07081A801082E12
:1007600001C0440F0A94EAF7472B408346B5461B65
:10077000463058F0E091AE01F091AF01EC0FFD1F53
:100780004081F901EC0FFD1F40833AE13A95F1F702
:1007900000C02F982E9AEBE2F1E03197F1F700C0FC
:1007A000000001968830910509F09BCFA091B0011F
:1007B000B091B101AC0FBD1FE091AE01F091AF015E
:1007C000EC0FFD1F9C918081981751F00E94771DBE
:1007D0006093B2017093B3018093B4019093B5011B
:1007E0002196C830D10509F07ACF80917302853007
:1007F00021F080917302811111C06091B20170915A
:10080000B3018091B4019091B5010E94921D6131B4
:1008100077428105910510F00E94321D0E94540319
:1008200081E0DF91CF911F910F9108952091B00148
:100830003091B101F901E80FF11D8081089508950B
:100840000895089584E008958430C8F46830B8F4B9
:100850004830A8F4E62FF0E098E0899FE00DF11D04
:10086000112483E0EE0FFF1F8A95E1F7E40FF11DDD
:10087000EE0FFF1FE05BFE4F85919491089581E09C
:1008800090E0089581E0089581E008950E94440475
:1008900008950E94460408950E944404089508950E
:1008A0000E944F040895A6E0B0E0E9E5F4E00C945E
:1008B000FE2549835A839E833091BB0189819A81A9
:1008C000311115C03E81332359F0222349F00E9493
:1008D000DD09182F682F89819A810E94B90903C008
:1008E0000E94CB09182F69817A81812F04C00E9450
:1008F000DD0969817A810E94EA102696E3E00C9472
:100900001A26FC01262F40815181628173818481E6
:1009100095810E9453040895CF93DF93EC0161E029
:100920000E948104BE010E944904DF91CF91089585
:10093000CF93DF93EC0160E00E948104BE010E942E
:100940005004DF91CF91089508950E94B4080E9449
:10095000A4042FEF84E39CE0215080409040E1F715
:1009600000C0000008950E94A5040E94D41D0895AF
:100970000E94A5040E94F81D08950F931F93CF9322
:10098000DF938C0161E00E948104EC01B8010E94B8
:100990002415882309F450C0B801CE010E944C04EC
:1009A000882309F449C0B801CE010E94631B882343
:1009B00009F442C0B801CE010E940D168823E1F16E
:1009C000B801CE010E94C91A8823B1F1B801CE0145
:1009D0000E94A61B882381F1F8018581882341F1BB
:1009E000C3308CE7D807D1F040F4C115FCE7DF072E
:1009F00091F0C130DC47A1F01BC0CB35ECE7DE073E
:100A0000A9F0CC35FCE7DF0771F0CA35DC4781F48B
:100A10000E943C0E0DC00E94B3040EC00E94440E02
:100A20000E94B80409C00E94320E02C00E94400E0B
:100A3000C8010E94420401C080E0DF91CF911F9164
:100A40000F9108950E94E81C0E94490508950E9494
:100A50004D050E94EB1C0895089581E008950895C6
:100A6000CF93DF93D82F0E942D05C82F882319F02C
:100A70008D2F0E942F058C2FDF91CF91089508951F
:100A8000CF93C82F0E942C058C2F0E943005CF9148
:100A9000089580E00E94400508950E94FB1B0E947B
:100AA00040050895CF930E94FB1BC82F8091B6018B
:100AB000C81779F0C093B6010E94771D6093B70103
:100AC0007093B8018093B9019093BA018C2F0E9462
:100AD0004005CF910895ADE0B0E0E1E7F5E00C947A
:100AE000FF25488759876A877B878C879D87911167
:100AF0000E94660DCE01019627E0FC0111922A9515
:100B0000E9F726E0FE013896DC0101900D922A9566
:100B1000E1F72D8121110AC029813A814B815C8145
:100B20006D817E818F810E94B00C04C00E948C0474
:100B30008111F2CF2D96E2E00C941B26FC0124815A
:100B4000213021F4808191810E940A0A0895662350
:100B500019F00E94A51202C00E9400130E94771390
:100B60000895CF93882309F455C0C82F8CEF8C0FBC
:100B7000813AF8F48C2F0E94DC1881114BC06C2F45
:100B800080910001909101010E94771C882349F017
:100B90006C2F80910001909101010E94B01C0E9475
:100BA000920D6C2F80910001909101010E94AD1C6B
:100BB0000CC080E28C0F883058F4C77081E001C00F
:100BC000880FCA95EAF70E94490D0E94920D22C033
:100BD000EBE5EC0FE33040F4F0E0E45BFE4F8081A6
:100BE00090E00E94211C16C0E8E5EC0FEB3150F4B8
:100BF000F0E0EE0FFF1FEA5EFE4F808191810E94C0
:100C0000461C08C083E38C0F833120F461E08C2FF5
:100C10000E94A705CF9108958823A9F19CEF980F12
:100C2000913A40F4682F80910001909101010E9457
:100C3000B01C0DC090E2980F983060F4877091E07E
:100C400001C0990F8A95EAF7892F0E944F0D0E94E3
:100C5000920D08959BE5980F933028F480E090E082
:100C60000E94211C089598E5980F9B3128F480E09C
:100C700090E00E94461C089593E3980F933118F476
:100C800060E00E94A70508951F93CF93DF93182F6C
:100C9000EB010E94B105209741F08FE99FE0019799
:100CA000F1F700C000002197F6CF812F0E940C06BB
:100CB000DF91CF911F910895893319F060E070E0C2
:100CC00002C060E570E00E9444060895882321F088
:100CD0000E94490D0E94920D0895882321F00E94E0
:100CE0004F0D0E94920D0895A0E0B0E0EAE7F6E013
:100CF0000C94F9257C01162FC72FFC01D5810681A4
:100D000002950F700E943F0D8823E9F0DD23D9F092
:100D10008C2F807F803451F080E2810F883098F0F2
:100D2000011104C08C2F807E803269F080916A02AC
:100D300082FF09C082E00E94060E0E943F0D91E0F2
:100D4000D82ED92601C0D12CCC2EC2948FE0C82237
:100D50008C2D90E08C30910508F091C1FC01EA5A8D
:100D6000FF4F0C94E2258C2F807FCF70882311F0E9
:100D7000C295C07FDD2399F0CC2309F46CC180E2D9
:100D8000810F883010F0111104C08C2F0E94490D82
:100D900003C08C2F0E94590D0E94920D5CC1812FBF
:100DA0000E940C06CC2309F46AC180E2810F8830CE
:100DB00038F1112329F18C2F0E945F0D24C08C2F54
:100DC000807FCF70803211F0C295C07F112319F05F
:100DD000113099F13CC080916A0282FD17C0DD2379
:100DE00049F0CC2329F08C2F0E94490D0E94920DCE
:100DF00080E032C180E00E940C06CC2309F43FC1A0
:100E00008C2F0E944F0D0E94920D39C1DD2349F0B5
:100E1000002309F1013009F032C18C2F0E94700DBE
:100E20002EC101112CC18C2F0E946D068C2F0E94A7
:100E30007C0D8C2F0E94D90D22C1DD2321F00630BC
:100E400008F01DC108C0053008F019C115C0DD2328
:100E500031F0011100C18C2F0E94660610C10023E1
:100E600059F0193309F008C1FFEF27EE83E0F15084
:100E700020408040E1F7FEC08C2F0E946D06FFC02D
:100E80008C2F86958695837019F0813061F0F7C0BC
:100E9000DD2321F0812F9C2F937002C080E090E031
:100EA0000E94211CF4C0DD2321F0812F9C2F937020
:100EB00002C080E090E00E94461CE9C06D2F812FA7
:100EC0000E94A705E4C08C2F837079F5D111DBC097
:100ED000412F429546954770440F440F212F2F70A4
:100EE000042E01C0220F0A94EAF714FF08C08FE015
:100EF00090E001C0880F4A95EAF7809501C080E034
:100F0000C695C695C370822BC23049F058F4C130E3
:100F100019F00E940B09B7C00E940509B4C00E94D5
:100F20001109B1C00E940209AEC0DD2319F08C2F57
:100F3000817001C08695882309F4A5C0412F429590
:100F400046954770440F440F212F2F70042E01C087
:100F5000220F0A94EAF714FF08C08FE090E001C066
:100F6000880F4A95EAF7809501C080E0C695C6953E
:100F7000C370822BC23049F058F4C13019F00E947E
:100F8000570981C00E9451097EC00E945D097BC043
:100F90000E941A0978C0CF70DD2339F08C2F0E948F
:100FA0002C09812F0E9466066EC0812F0E946D065B
:100FB0008C2F0E94380967C0123F21F128F4103F9E
:100FC00041F0113FC1F043C0133F19F1143F79F0D4
:100FD0003EC0DD2341F0053008F051C08C2F8F71E9
:100FE0000E9445094CC0063008F049C0F7CF8091F7
:100FF0006A0282FD18C0DD2339F08C2F8F710E94A8
:101000002C093DC0DD23C9F38C2F8F710E94380954
:1010100036C0DD2329F08C2F8F710E9423092FC049
:101020000E941F092CC0DD2349F0CF718C2F0E9434
:101030002C0963E08C2F0E94E80D21C081E00E9402
:10104000060E0230E0F082E00E94060E18C0DD239A
:1010500031F0002391F2812F0E94B10510C00023CE
:1010600099F2193349F49FEFE7EEF3E09150E04035
:10107000F040E1F700C00000812F0E940C0688EFCD
:101080008C0D843020F40E94FB1B0E944005DD2063
:1010900089F00E943B0D80FD0DC0F70115820E9472
:1010A000350D0E942C09C7010E9477080E94350D5A
:1010B0000E943809CDB7DEB7E8E00C9415260F93EF
:1010C0001F93CF93DF93EC01688179818D810E941A
:1010D000150A8C010E9463090E94F508B801CE012F
:1010E0000E947406DF91CF911F910F910895CF93C5
:1010F000DF93FC0124812223D1F0EC010E94BD0486
:1011000081110FC00E943F0D882389F08D818823B3
:1011100071F080916A0282FF0AC082E00E94060E8E
:1011200006C0CE010E945F08CE010E949804DF91A4
:10113000CF91089580E090E00E94211C80E090E033
:101140000E94461C0E94660D0E94920D0E949613FA
:101150000E947713089580910001909101010E94EF
:10116000B31C0E949A0808950E94560D0E94AB0875
:10117000089592959F70963079F010F4925001C0C6
:101180009A50923068F4803F69F018F4883E40F439
:1011900009C0843F29F406C0883E20F0813F11F049
:1011A00080E0089581E00895FC012481222339F034
:1011B000808191810E940A0A0E94B908089580E006
:1011C0000895A6E0B0E0E7EEF8E00C94FF2526963F
:1011D000E2E00C941B26A7E0B0E0E1EFF8E00C940D
:1011E000FF252796E2E00C941B26089508950E949F
:1011F000F60808950E94F70808950E94FA0880935F
:10120000D50108950E94FD0808959091D501892B7C
:101210000E94FD0808959091D50189230E94FD0840
:1012200008959091D50189270E94FD0808950E9494
:10123000F60808950E9417098093D401089580E06C
:101240000E941A09089591E001C0990F8A95EAF762
:10125000892F0E941A09089521E030E001C0220F71
:101260008A95EAF78091D401822B0E941A09089589
:1012700021E030E001C0220F8A95EAF720958091A5
:10128000D40182230E941A09089521E030E001C0B0
:10129000220F8A95EAF78091D40182270E941A09C9
:1012A00008959091D401892B0E941A090895909174
:1012B000D40189230E941A0908959091D4018927A5
:1012C0000E941A0908950895962F9770A1E001C011
:1012D000AA0F9A95EAF793E0769567959A95E1F7C4
:1012E000FB01EE0FFF1F6E0F7F1FFA01E60FF71FC6
:1012F00040E050E0682F70E090819B01042E02C016
:10130000369527950A94E2F72170219529272A23FB
:10131000292721934F5F5F4F4330510569F70895A7
:101320009B01782F777043E0969587954A95E1F772
:10133000FC01EE0FFF1F8E0F9F1FF901E80FF91F31
:1013400040E050E080E0219130E0072E02C0369569
:1013500027950A94E2F721703327042E01C0220F4B
:101360000A94EAF7822B4F5F5F4F4330510559F7DC
:101370000895282F983070F4883060F4862F622FFB
:1013800070E028E0929F600D711D11244CEB51E03C
:101390000E9464090895983070F4883060F4292F11
:1013A00090E06CEB71E038E0239F800D911D1124DB
:1013B0000E949009089580E00895CF92DF92FF92F5
:1013C0000F931F93CF93DF936C010091D401809111
:1013D000D501082BC3E0D0E010E0C8010C2E02C0FC
:1013E000959587950A94E2F780FD04C02197A8F7A8
:1013F000F12C07C0FC2EB6018C2F0E94F61001972D
:10140000A9F38F2DDF91CF911F910F91FF90DF9066
:10141000CF900895CF93DF93EC010E94DD09BE01C8
:101420000E94F610DF91CF9108951F93CF93DF9321
:10143000EB019091BB01992321F0CB010E940A0A94
:1014400013C0882349F0CB010E94DD09182F682FB3
:10145000CE010E94B90904C0CB010E94CB09182F0C
:10146000BE01812F0E94F610DF91CF911F91089548
:10147000E1E0F0E0DF0102C0AA0FBB1F6A95E2F7CE
:10148000BD01DF0102C0AA0FBB1F4A95E2F7AD0103
:10149000462B01C0EE0F2A95EAF7942F98234913A3
:1014A00002C08E2B0895E0958E230895242F462F99
:1014B000682F8091D4010E94380A0E941A09089569
:1014C0001F93CF93DF93C091D60117E08091D7018E
:1014D000C817A1F0D0E01C9FF0011D9FF00D112452
:1014E000E852FE4F208131814281538164817581B0
:1014F00086810E94EB082196C770E8CFDF91CF91DB
:101500001F91089520911002309111024091120212
:10151000509113026091140270911502809116028D
:101520000E94EB080895CF93DF9380911602829575
:101530008F7009F04EC080911502882309F449C0CC
:101540008091D6014091D701509111026091100213
:10155000C0911202D091130277E08417D1F190E08C
:10156000789FF001799FF00D1124DF01A852BE4F42
:1015700014962C911497222349F111962C911197CE
:10158000251324C02C91261321C015962C91159754
:1015900021111CC012962D913C9113972C1B3D0BD1
:1015A000283C310598F4809116028F7080618093F9
:1015B0001602E252FE4F80818F708061808380E14D
:1015C00092E00E9477080E94600A03C0019687702B
:1015D000C4CFDF91CF9108952091D6019091D7018A
:1015E00057E02917A9F030E0529FF001539FF00D0A
:1015F0001124E852FE4F7181761306C07081781372
:1016000003C07581741306C02F5F3F4F2770E9CF69
:1016100080E0089581E00895A4E1B0E0E2E1FBE01C
:101620000C94F5258C0186E0F801DE011F960190EF
:101630000D928A95E1F7F8018481E58090E1A92E69
:1016400092E0B92E90911402911118C0882309F4E8
:1016500080C1EE20D9F1C8010E94D408F82E882359
:10166000A9F187E0F801D50101900D928A95E1F783
:10167000C5010E949E050E94930A98C0F801C0808F
:10168000D18082809380F0901502209112023091D7
:101690001302A401421B530BFF2009F406C1483C6E
:1016A000510508F0AFC0882309F455C18091160296
:1016B000282F207F90911102222361F09D1509F4BB
:1016C00062C0C8010E94D408811173C0C8010E9481
:1016D00077083FC19D1115C0909110029C1111C057
:1016E000E1100FC08F708061809316020E94820A01
:1016F00080E192E00E94770880911602F8018683CB
:1017000026C1E1103AC040E06D2D8C2D0E94EC0AFC
:1017100040E06D2D8C2D0E94EC0AE82E811117C13E
:10172000CF86D88A8F8598890E940A0A292F229508
:101730002F70243020F49F70223028F009C02A50E6
:10174000223080F014C0992349F0811107C013C0E2
:10175000992321F0F8019681907F69F0805E8830AE
:1017600030F409C0803F38F0815F833020F0C80139
:101770000E947708EF2CFE2CEEC08091160281604B
:1017800080931602E4C0909110029C119ACFE11050
:1017900098CFF8018683C8010E94770887E0F80196
:1017A000A0E1B2E001900D928A95E1F70E94820AD1
:1017B000D2C0EE2009F48ACF20911602822F8295A2
:1017C0008F7090E002978CF080911002909111023E
:1017D000998788879B868A86809114028C871D86CC
:1017E0002E87CE0108960E94770887E0F801A0E1D5
:1017F000B2E001900D928A95E1F70E94930A0E944F
:10180000820AA7C090911602292F207FA1F4682D8B
:101810009A8A898AA6017A899E2D0E94E10880E130
:1018200092E00E94770887E0F50111928A95E9F726
:101830000E94820A8CC0882309F48DC08091110215
:101840008D1111C0809110028C110DC0E1100BC0E0
:10185000F8019683C8010E94770887E0F50111928C
:101860008A95E9F778C0C8010E94D408882309F452
:101870002DCFEE2009F42ACF20911602822F8295D7
:101880008F7090E002970CF4B0CF8091100290918D
:1018900011029A8389839C828B82809114028D83AA
:1018A0001E822F83CE0101969ECF483C510508F041
:1018B00040C0882309F44DC0FE2CEE2009F406CF69
:1018C000809111028D1127C0809110028C1123C0CC
:1018D0009091160290FD16C0892F82958F70282F47
:1018E00030E02115310571F0F80196832F30310574
:1018F00009F451CF8F5F982F9295907F86818F70DA
:10190000892B48CF87E0F801A0E1B2E001900D9269
:101910008A95E1F720C0C8010E94D408811165CFE3
:1019200080911602816080931602C8010E94770898
:1019300012C0682D9A8A898AA6017A899E2D0E94F2
:10194000E10887E0F50111928A95E9F72FCFF12C94
:1019500002C0FF24F3948F2D6496ECE00C941126C2
:10196000AEE0B0E0E6EBFCE00C94FE25288739877A
:101970004A875B876C877D878E87CE0108960E9499
:101980000C0B882361F06C856623A9F128853985C5
:101990004A855B857D858E850E94EB082CC087E09B
:1019A000FE013896DE01119601900D928A95E1F7BD
:1019B0006C85662301F12091D70130E0C9010196C1
:1019C000877099274091D60150E084179507E1F17F
:1019D0006D8397E0929FD001939FB00D1124A85280
:1019E000BE4FFE01319601900D929A95E1F78093DA
:1019F000D7010E94600A17E08091D6019091D7012B
:101A0000891779F1189FC001112488529E4F0E94B6
:101A10000C0B882331F1E091D6011E9FF0011124B7
:101A2000E852FE4F2081318142815381648175816A
:101A300086810E94EB088091D60190E00196877024
:101A400099278093D601D8CF0E94B4081092D7016D
:101A50001092D601E0E1F2E087E0DF011D928A9565
:101A6000E9F72E96E3E00C941A2680911F028695E2
:101A700086958695089580911F02877008959091AC
:101A80001F02977081E009F480E0089580912B0295
:101A9000089590912B02892B80932B0208958095B5
:101AA00090912B02892380932B02089510922B0290
:101AB000089590912A02892B80932A020895809597
:101AC00090912A02892380932A02089510922A0273
:101AD000089508950E94690D08950E946A0D089561
:101AE00090912102292F2823821729F0982B909377
:101AF00021020E946D0D089590912102292F282323
:101B000031F080958923809321020E946D0D089504
:101B100080912102882329F01092210280E00E9406
:101B20006D0D0895CF93DF93E0910001F0910101D5
:101B300080912B028083E0910001F091010190815E
:101B400080912A02892B808380912102882381F051
:101B5000E0910001F09101019081892B80838091B7
:101B60000001909101010E946B1C81110E94880D5F
:101B7000C0910001D091010148E050E067E172E0BE
:101B8000CE010E943A26892B59F088E0FE01A7E198
:101B9000B2E001900D928A95E1F7CE010E94081CF7
:101BA000DF91CF9108950E94690D08950E94D30D91
:101BB000089590912002292F282331F080958923C0
:101BC000809320020E94D60D08950E94690D089509
:101BD00090916A0292FF11C098E0899F90011124B0
:101BE000262B20931F020E942C0980911F028695AC
:101BF000869586950E94E50D08950E942C0908950A
:101C000010921F0280E00E94E50D089590911F023E
:101C10008095892380931F02282F277069F49817D5
:101C200059F090916A0292FF07C086958695869535
:101C30000E9438090E94000E089590916A0292FB5A
:101C4000222720F9281769F080FB92F990936A0205
:101C50008091690290916A020E94660E82E00E9461
:101C6000060E089580916A0282FB882780F991E030
:101C700089270E941D0E089581E00E941D0E08957F
:101C800080E00E941D0E08956FEF7FEF80E090E0EE
:101C90000E948326089580E090E00E944F26863EB1
:101CA0009E4F19F40E94B814089580E0089582E0D0
:101CB00090E00E944726089583E090E00E94472626
:101CC000089584E090E00E944F260895BC0184E0CE
:101CD00090E00E9483260895AB01BC018FE090E064
:101CE0000E9477260895AB01BC0183E190E00E9439
:101CF0007726089560E070E0CB010E94730E08958E
:101D000060E070E0CB010E946C0E0E947A0E089594
:101D1000A8E0B0E0EEE8FEE00C94FF2566EE7EEF72
:101D200080E090E00E94832660E082E090E00E94E4
:101D3000652660E083E090E00E9465261092D50160
:101D400060E074E184E090E00E94832660E086E039
:101D500090E00E9465266FEF87E090E00E94652684
:101D600040E050E0BA0188E090E00E94772660E011
:101D700084E290E00E94652660E087E190E00E94A6
:101D8000652660E08CE090E00E94652660E08DE0D2
:101D900090E00E94652619821A821B821C821D8295
:101DA0001E821F82188648E050E068E170E0CE0194
:101DB00001960E94552640E050E0BA0180E290E092
:101DC0000E94772680E00E94D1140E9406150E948E
:101DD000800E2896E2E00C941B260E94880E08953F
:101DE000682F8EE090E00E9465260895A6E0B0E09E
:101DF000ECEFFEE00C94FD250E946B1D8C018091A0
:101E00002C0290912D020817190781F019821A826D
:101E10000E946B1D682F49815A81792F80E090E0E4
:101E20000E946B0510932D0200932C022696E4E08D
:101E30000C9419260E94771D60933A0270933B021E
:101E400080933C0290933D02609336027093370278
:101E50008093380290933902089581E0089581E0DB
:101E600008950E942F0F089508950E94340F089539
:101E70000E94340F08950E94380F08950E94340F75
:101E800008950E943E0F08950E94340F089583EA3A
:101E90009FE10E94F11B0E94440F0E94410F089590
:101EA0000E94350F0E94340F08950E94F7110E947E
:101EB0003F0508950E94621D0E9416150E942E0380
:101EC0000E94550F0E943B0F0895A6E0B0E0EBE69C
:101ED000FFE00C94F6250E942D0F811103C00E9493
:101EE000F60E53C00E9457038EE2E82E82E0F82ED1
:101EF000670100E0F60111916F01802F0E94160426
:101F000081270F5F083019F08823A1F302C08823CE
:101F100031F380913E0281FD0E941F040E94310F27
:101F2000A82E10E099249394812F0E941604B82EB5
:101F3000F701C080C82609F100E0DD24D3948C2D80
:101F40008D21A9F0AA2099F009831A830E946B1DA4
:101F50009C838B839D8291E08B2D8D2109F490E0F1
:101F600049815A816B817C818D810E946B050F5F55
:101F7000DD0C083021F7F701B0821F5FFFEFEF1A89
:101F8000FF0A183089F60E941A0F0E94B8130E94A7
:101F900052052696EBE00C9412261F93CF93DF9305
:101FA0000E94FB10EC01C11580E5D807E8F5C115CA
:101FB00090E4D90708F0A8C0C03ED10530F5CD3C6B
:101FC000D10508F094C0C83AD10578F4C53AD105D6
:101FD00008F083C0C130D10509F47CC008F4F2C018
:101FE000C430D10508F0F1C0EDC0C33CD10508F004
:101FF000E9C0C85AD0E0CC0FDD1FC15BDE4F0990AD
:10200000D881C02DCE019464E1C0C11580E2D8070B
:1020100008F0CBC0C11591E0D90708F06BC0C83EED
:10202000D10508F4D2C0CEC0C03682E5D80728F565
:10203000C03492E5D90708F079C0C03282E5D807EC
:1020400008F06CC0C11592E5D90708F481C04C2F87
:102050004695469580E2489FA0011124C37021E077
:1020600030E0C90102C0880F991FCA95E2F7EA0162
:10207000C82BD92BCE019D68A9C0C03A82E5D807EC
:10208000B8F48C2F8F71C03892E5D90708F07BC067
:102090008695869590E2899F90011124C37081E016
:1020A00090E002C0880F991FCA95E2F79A6868C04D
:1020B000C03C82E5D80708F46DC0C03E92E5D90760
:1020C00008F080C0CF71DD27DC2FCC27CE01806FD8
:1020D000906A7CC081E090E079C0C55AD0E0CB57CF
:1020E000DE4F8881C82FD0E0CE0190646FC0CE0152
:1020F00090656CC08D2F0E949711182FCE019927E3
:102100000E94FB101F715CC0CE0199270E94FB103A
:10211000CC27DF70D06A8C2B9D2B58C0CF71D0E0BC
:10212000DC2FCC27CE01816F906A50C08C2F8F712D
:102130008695869590E2899F90011124C37081E075
:1021400090E002C0880F991FCA95E2F79C6818C0FA
:102150008C2F8F710E94971195E0D695C7959A950F
:10216000E1F7CF70D0E0DC2FCC27282F30E084FFC0
:1021700005C084E0220F331F8A95E1F7D069CE01B4
:10218000822B932B23C090E0D82FCC27CE01846FD5
:10219000906A1CC08C2F8F710E9497118F7190E0F4
:1021A000D82FCC27CE01906211C08D2F8F710E9445
:1021B0009711182FCE0199270E94FB101F71906272
:1021C000912B04C080E090E001C0CE01DF91CF915F
:1021D0001F910895783038F4683028F4462F672F1F
:1021E0000E94E119089580E090E008950E94EA10AD
:1021F0000E94CD0F08958238910569F1B0F48133C2
:10220000910509F475C048F48932910509F467C055
:102210008A32910509F471C008958533910509F456
:1022200059C089339105B9F00895833E910589F12C
:1022300038F4803E9105D1F0823E910529F1089550
:10224000863E9105C9F1873E9105D9F1843E9105FD
:1022500009F06CC027C02091690220FD57C021FD04
:1022600055C020916A0223FD5BC0089580916902E8
:1022700080FD48C080916A0280FF48C08091690259
:1022800084FD46C083EE51C08091690282FF3CC04C
:10229000F5CF8091690282FD37C080916A0280FD8E
:1022A00035C0ECCF80916A0281FF36C0809169020F
:1022B00084FD2EC087EE39C08091690283FF2AC059
:1022C000F5CF8091690283FD25C080916A0281FD6E
:1022D00023C0ECCF8091690285FD22C01FC0809190
:1022E000690285FD1BC080916A0283FF19C00AC084
:1022F0008091690286FD16C017C08091690286FD33
:1023000013C010C089E311C082EE0FC080EE0DC073
:1023100080E00BC086EE09C084EE07C085E305C0EF
:1023200089E203C08AE201C081E390E008959091C0
:10233000690292FF0DC0282F2871283019F4877F79
:10234000846006C0282F2471243011F48B7F8860AC
:1023500093FF0DC0282F2871283119F4877E8461DE
:1023600006C0282F2471243111F48B7E88612091BE
:102370006A0220FF0DC0382F3871383019F4877F7A
:10238000816006C0382F3171313011F48E7F886042
:1023900021FF0DC0282F2871283119F4877E816113
:1023A00006C0282F2171213111F48E7E886194FDA1
:1023B000877E08950E94440E08950E9457032FEFD0
:1023C00086E791E0215080409040E1F700C0000096
:1023D0000E94570380E00E94160480FF04C00E9400
:1023E000DA110E94D41D08950E94DD1108950E9403
:1023F0004B0E811102C00E94ED0E0E94570E809379
:102400003E020E94610E90936A02809369020E94CC
:10241000F4110E945C0E0E9402098091D4010E9476
:10242000170908950E9420200E945A0F0E942D2013
:1024300008950E9432200E94650F0E944C2008954A
:102440000E94021D0E9406200E94470F0E94121245
:102450000E9419120E94500FFBCF8091450280FF0D
:1024600006C06091070170E0660F771F26C081FFEC
:1024700004C06091070184E005C082FF07C060913D
:10248000070188E0689FB001112417C090914402B1
:102490009923D1F060910601961788F720910701E2
:1024A00088E0289F90011124929FA001939F500DD6
:1024B000112470E0CA010E94CE256038710540F4F5
:1024C0006115710519F406C068E070E0862F089563
:1024D0008FE7089581E008958091450280FF08C04C
:1024E0006091030170E0759567957595679521C0BA
:1024F00081FF06C06091030170E07595679519C072
:1025000082FF04C06091030170E010C0909143020B
:10251000992399F0609102019617A0F78091030129
:10252000899FC001112470E00E94CE25603871059A
:1025300040F46115710519F406C061E070E0862F62
:1025400008958FE7089581E008958D3C21F40E945D
:102550002D12819504C08E3C29F40E942D12809387
:10256000490208958F3C21F40E942D12819504C0E8
:10257000803D29F40E942D12809348020895893DE0
:1025800019F40E946C1205C08A3D31F40E946C124D
:10259000819580934A0208958B3D21F40E946C122C
:1025A000819504C08C3D29F40E946C1280934B02EB
:1025B00008959FE2980F983078F421E030E0A90167
:1025C00002C0440F551F9A95E2F7CA019091470245
:1025D000892B8093470208958D3D21F48091450217
:1025E00081600BC08E3D21F480914502826005C060
:1025F0008F3D29F4809145028460809345020895BF
:102600008D3C39F49091490297FF35C010924902F0
:1026100059C08E3C29F4909149021916BCF32BC085
:10262000909148028F3C29F497FF25C010924802F0
:1026300049C0803D19F41916CCF31DC090914A028F
:10264000893D29F41916BCF410924A023BC08A3D18
:1026500019F497FF10C0F8CF8B3D39F490914B02DD
:1026600097FF09C010924B022DC08C3D21F4909130
:102670004B021916BCF39FE2980F983080F421E0CA
:1026800030E0A90102C0440F551F9A95E2F7CA0134
:1026900080959091470289238093470213C08D3D16
:1026A00021F4809145028E7F0BC08E3D21F48091F4
:1026B00045028D7F05C08F3D29F4809145028B7FB7
:1026C0008093450280914802811106C080914902A1
:1026D000811102C01092440280914A02811106C009
:1026E00080914B02811102C01092430208950E9412
:1026F0006B1D20914802211104C020914902222320
:1027000021F0909342028093410220914A022111CC
:1027100004C020914B02222321F090934002809329
:102720003F0286E492E00E94131C0895E6E4F2E082
:1027300086E0DF011D928A95E9F71092440210921B
:102740004302109245020895FC01828181110DC05F
:10275000838181110AC08481811107C091E0858144
:10276000811101C090E0892F01C081E0817008953E
:10277000A6E0B0E0EEEBF3E10C94FE2586E0E6E4A3
:10278000F2E0DE01119601900D928A95E1F7109228
:1027900048021092490210924A0210924B028B8119
:1027A000811104C08C81882309F45FC080914102AB
:1027B000909142020E94831DAC01909144029923A2
:1027C00039F02091080130E02417350758F04DC04A
:1027D000209109018AE0289F9001112424173507D0
:1027E00018F043C09F3F19F09F5F909344021B81F4
:1027F000112361F00E942D12111614F09FEF01C0F9
:1028000091E0989F902D1124909348021C811123F0
:1028100061F00E942D12111614F09FEF01C091E09B
:10282000989F902D112490934902309148023323B0
:10283000E1F0209149022223C1F045EB3403C001AD
:102840001124992319F09093480203C081E08093EA
:10285000480235EB2303C0011124992319F090930A
:10286000490203C081E0809349028D81811104C037
:102870008E81882309F45FC080913F0290914002CD
:102880000E94831DAC0190914302992339F020915D
:10289000040130E02417350758F04DC020910501A0
:1028A0008AE0289F900111242417350718F043C0AF
:1028B0009F3F19F09F5F909343021D81112361F0A8
:1028C0000E946C12111614F09FEF01C091E0989FC6
:1028D000902D112490934A021E81112361F00E94D1
:1028E0006C12111614F09FEF01C091E0989F902D8B
:1028F000112490934B0230914A023323E1F020914E
:102900004B022223C1F045EB3403C001112499236B
:1029100019F090934A0203C081E080934A0235EB9C
:102920002303C0011124992319F090934B0203C093
:1029300081E080934B02BE016F5F7F4F86E492E09F
:102940000E94BA1C811105C086E492E00E94A41383
:1029500081110E94771386E0FE013196A6E4B2E071
:1029600001900D928A95E1F72696E3E00C941A26E1
:1029700085E290E00E944726843281F486E290E06E
:102980000E944726813051F487E290E00E9447265A
:1029900091E0803309F090E0892F01C080E08170E0
:1029A0000895CF93C82F811102C06FEF01C064E278
:1029B00085E290E00E946526C11102C06FEF01C060
:1029C00061E086E290E00E946526C11102C06FEFCF
:1029D00001C060E387E290E00E946526CF910895F0
:1029E000089588E290E00E944726682F70E080E01A
:1029F00090E008950895CF93C62F0E94FA146C2F8B
:102A000088E290E00E946526CF91089580E00E94C0
:102A1000D11460E070E0CB010E94FB140E94741995
:102A20000E94361A81E00E94D11408950E94F01489
:102A30000E94F1140E94FA140E94B814811102C07D
:102A40000E940615089508959C01FB018581882345
:102A500051F0A90157574038510530F4C9010E947F
:102A6000461A80E0089581E008952FEFFC0120834D
:102A700008950E943515089580E00895A0E0B0E023
:102A8000E4E4F5E10C94F725EC01F62E0E943C15E8
:102A90008111BEC0E8818E2F90E0FC013197E331B7
:102AA000F10508F0AFC0EE59FF4F0C94E2251982F2
:102AB0008CE06BC08981823089F030F4813009F07C
:102AC000A1C00E94771D0CC0833079F0843009F0DA
:102AD00099C01A821B821C821D8296C00E94F1142A
:102AE0009A838B837C836D838FC0EA806E0183E041
:102AF000C80ED11C00E010E0AE2CB12CC501800F37
:102B0000911F089708F080C08E2D800F0E94160438
:102B1000F60181936F010F5F1F4F0C31110571F7A3
:102B200073C08981823039F0853009F06BC08A81A9
:102B30000E94231569C06A817B818C819D810E94DE
:102B4000E8250E94FB1460C04B816A8189810E9444
:102B500038199C838D8358C02C813D8132272327CF
:102B600032274B816A8189810E9459194DC00E9488
:102B700074194AC06F2DCE010E94391545C00E94BC
:102B8000ED1924C00E94EF1999838A833DC06B819F
:102B900070E089819A81AE014C5F5F4F9827892749
:102BA00098270E94F21930C06B8170E089819A8168
:102BB000AE014C5F5F4F9827892798270E94151A0E
:102BC00023C00E94361A20C00E94251989831CC088
:102BD0006B8170E089819A81AE014C5F5F4F9827CD
:102BE000892798270E949F190FC06B8170E0898107
:102BF0009A81AE014C5F5F4F9827892798270E94E2
:102C0000C11902C08FEF88836F2DCE010E944C1E28
:102C1000CDB7DEB7EAE00C941326CF93DF93FC0127
:102C2000DB0115968C91882309F4DDC09F01305794
:102C30002332310508F0D8C0EF010E94610E909355
:102C40006A0280936902FE01E150F047E232F10529
:102C500020F4EB58FF4F0C94E225809169028160CB
:102C6000AAC080916A028860B2C0809169028260C5
:102C7000A2C08091690220C08091690288609BC0D7
:102C800080916A021EC080916A028260A0C0809119
:102C90006902806190C08091690280628CC08091DD
:102CA0006902806488C00E94B408809169028068CB
:102CB00082C080916902886084607DC080916A02D0
:102CC0008260816084C0809169028E7F74C080912F
:102CD0006A02877F7CC0809169028D7F6CC0809181
:102CE000690220C080916902877F65C080916A0275
:102CF0001EC080916A028D7F6AC0809169028F7EBA
:102D00005AC0809169028F7D56C0809169028F7B85
:102D100052C00E94B408809169028F774CC08091A4
:102D20006902877F8B7F47C080916A028D7F8E7F8B
:102D30004EC08091690282FB222720F991E0922700
:102D400090FB82F990FB83F936C080916A02982F3C
:102D5000909591708E7F892B90FB81F938C080917E
:102D6000690286FB222720F991E0922790FB86F9E1
:102D700022C00E94B4088091690287FB222720F9B3
:102D800091E0922790FB87F916C081E001C080E0B6
:102D90000E94F00E1EC08091690284FB222720F958
:102DA00091E0922790FB84F906C080916902982FE8
:102DB000909590FB80F9809369020BC080916A0224
:102DC00083FB222720F991E0922790FB83F98093DF
:102DD0006A028091690290916A020E94660E0E94C6
:102DE000B40880E001C081E0DF91CF910895A0E0B8
:102DF000B0E0EDEFF6E10C94FA25E82FF0E0E05BAF
:102E0000FC4FD490282F26952695269530E0F90181
:102E1000E051FC4F0491877010E0082E02C0159518
:102E200007950A94E2F701701127F901E052FC4F6F
:102E3000E490F12C082E02C0F594E7940A94E2F78E
:102E400091E0E922FF24F901E053FC4FC491D0E066
:102E500002C0D595C7958A95E2F7C170DD270115A7
:102E6000110519F081EE0E94B105E114F10419F089
:102E700086EE0E94B1058D2D0E945C06E114F104DE
:102E800019F086EE0E940C060115110519F081EE6D
:102E90000E940C06CD2B19F08CE20E945C06CDB787
:102EA000DEB7E7E00C941626EF92FF920F931F9384
:102EB000CF93DF93EC01162F0AE08881882309F471
:102EC00055C0813009F043C08981813041F47E01D1
:102ED00082E0E80EF11C8A810E945C0609C0823003
:102EE00049F47E01E2E0EE0EF11C8A810E94B105F8
:102EF000E7012FC0833041F47E01F2E0EF0EF11CB8
:102F00008A810E940C06F4CF843011F0219621C0F2
:102F10002A81229680E090E030E0205331092A3067
:102F2000310558F4089FA001099F500D1124C901D3
:102F3000840F951F21962881EFCF009751F0EFE97C
:102F4000FFE03197F1F700C000000197F6CF0E9433
:102F5000F7162196812F882309F4AFCFEFE9FFE020
:102F60003197F1F700C000008150F5CFCDB7DEB743
:102F7000E6E00C941726893289F1F0F4843171F17E
:102F8000B0F4873009F077C081E08093090184E1D3
:102F9000809308018AE0809307018EE18093060107
:102FA00088E08093030188E28093020164C092EE7E
:102FB000980F9A30F0F05FC0803509F444C028F4CF
:102FC0008F3409F058C08AE03FC0813529F082353E
:102FD00009F051C081E038C08FEF36C080914E02B9
:102FE000882379F110924E0210924D0210924C02F9
:102FF00042C08D5180934E02833099F038F4813075
:1030000069F08230D9F488E091E00DC0853099F004
:1030100078F0863099F482E091E005C089E091E093
:1030200002C087E091E090934D0280934C0223C050
:1030300086E091E0F8CF83E091E0F5CF10924E0268
:103040001AC080E0089586EFE0914C02F0914D02A5
:10305000309789F02081082E000C990B820F911D6A
:103060008F3F910519F014F08FEF04C097FF02C055
:10307000108201C0808381E008958B3109F469C01A
:1030800058F58B3009F48DC078F4863009F446C0C9
:1030900020F4853009F44CC088C0873009F44BC057
:1030A000883009F47EC081C0803109F465C068F4BD
:1030B0008E3009F07AC080913E0282FB222720F9EF
:1030C00091E0922790FB82F94DC0863109F469C0E6
:1030D000893109F466C069C08A32E9F060F4873248
:1030E00009F461C028F48E3108F45FC08D514FC0DF
:1030F0008932F1F05AC0833450F48A3308F046C064
:10310000853309F450C0883309F44BC04EC0833472
:1031100009F449C04AC00E94ED0E43C080913E02AE
:10312000817F8E7F80933E0281E080934F020895DD
:103130000E94B30436C080913E02982F9095917002
:1031400090FB80F980933E0291112BC0897F877F8D
:1031500010C080913E0281FB222720F991E0922746
:1031600090FB81F980933E029923D9F080913E0231
:10317000816080933E0215C080913E0283FB22272E
:1031800020F991E0922790FB83F9ECCF895391E0ED
:1031900001C0990F8A95EAF7892F0E9402090E94BF
:1031A000B40881E0089581E0F8CF80E0089580E0E0
:1031B00008950E94D7180895CF93C82F80914F0289
:1031C000813069F038F08230C1F58C2F0E94BB1736
:1031D00081E039C00E94460D823289F504C00E9408
:1031E000460D823261F48C2F0E94D918811104C0DF
:1031F0008C2F0E943D181FC081E090E01CC08C2FD6
:103200000E94D718811116C0C43189F058F4CB3010
:1032100089F0C031B1F482E080934F0288E30E94CC
:10322000BB1708C0C93219F0C83321F00AC0109288
:103230004F0207C081E0817006C010924F0280E00B
:1032400002C080E0F8CFCF91089584E0089550E067
:10325000440F551F20E1629F400D511D11249A011A
:1032600060E8869F200D311D1124C90189960895BB
:103270000F931F93CF93DF938430A0F4683090F4C2
:10328000483080F40E9427198C010E94472690E064
:10329000D82FCC27C80101960E9447269E01282BD3
:1032A000C90102C080E090E0DF91CF911F910F91A2
:1032B00008950F931F93CF93DF93843080F4683089
:1032C00070F4483060F4E9010E9427198C016D2FD9
:1032D0000E9465266C2FC80101960E946526DF9129
:1032E000CF911F910F9108950F931F93CF93DF9369
:1032F000C0E0D0E010E000E00E94220490E0C81797
:10330000D9073CF4402F612F8C2F0E9424049C018C
:1033100002C021E030E0402F612F8C2F0E9459190C
:103320000F5F083049F71F5F183029F72196C43026
:10333000D10501F7DF91CF911F910F910895EF9281
:10334000FF920F931F93CF93DF93EA017A01E60E6A
:10335000F71E8C01C8018996CE15DF0569F00115AD
:1033600022E0120720F40E944726888301C01882B9
:1033700021960F5F1F4FEECFCDB7DEB7E6E00C947E
:103380001726EF92FF920F931F93CF93DF93EA01DB
:103390007A01E60EF71E8C01C8018996CE15DF056D
:1033A00059F0011522E0120718F468810E94652681
:1033B00021960F5F1F4FF0CFCDB7DEB7E6E00C943C
:1033C0001726843038F4683028F4483018F40E9406
:1033D0003819089580E090E0089580E1089587ED20
:1033E00091E00895EF92FF920F931F93CF93DF9395
:1033F000EA017A01E60EF71E8C01C801875D9D4F38
:10340000CE15DF0569F0073D21E0120720F40E9488
:103410004726888301C0188221960F5F1F4FEDCF8A
:10342000CDB7DEB7E6E00C941726EF92FF920F932C
:103430001F93CF93DF93EA017A01E60EF71E8C010A
:10344000C801875D9D4FCE15DF0559F0073D21E08E
:10345000120718F468810E94652621960F5F1F4F9E
:10346000EFCFCDB7DEB7E6E00C941726CF93DF930E
:10347000C9E2D2E060E0CE010E9465262196C11526
:1034800084E0D807B9F7DF91CF910895A8E0B0E0C4
:10349000ECE4FAE10C94F525F82E8FE08F1508F492
:1034A00074C08FEF93E00E94472681116EC009E23D
:1034B00012E0FF2071F0011594E0190709F465C0CE
:1034C000C8010E944726811101C0FA940F5F1F4F67
:1034D000F0CFFE0131966F0188E011928A95E9F7ED
:1034E0007801FFEFEF1AFF0AC8010E94472689837F
:1034F0001A82882309F449C0813009F040C058017C
:1035000082E0A80EB11CC7010E9447268A83882347
:10351000E1F19FEF980F933060F4780193E0E90EAA
:10352000F11CC5010E9447268B83882371F11C8200
:1035300026C0843019F54E01E3E08E0E911C02E0A6
:1035400010E07501FFEFEF1AFF0AC5010E94472640
:10355000F40181934F018823C1F08C3741F4E2E0FC
:10356000F0E0EC0FFD1FE00FF11F108208C00F5FAD
:103570001F4F57010730110521F707C0750160E0A3
:10358000C6010E9454178701ABCF2896ECE00C943B
:103590001126CF93DF9386319C4741F5EB010E94C2
:1035A000460D982F8D8120910001309101018823D3
:1035B00079F09A7A81E009F480E0809350029111C9
:1035C00002C069E201C065E3C9010E94AD1C0AC0E6
:1035D00080915002811102C069E201C065E3C90116
:1035E0000E94B01C0E94920D80E001C081E0DF913A
:1035F000CF9108950F931F93CF93DF93C42FD22FB2
:10360000FC0185818823B1F0409353020E946B1D19
:10361000909352028093510280E28C0F883008F020
:103620004DC0C77081E001C0880FCA95EAF70E94BB
:10363000660644C080915302481330C08091510205
:10364000909152020E94831D883C910538F510E24A
:103650001D0FCD17B9F080E28C0F883040F4C77091
:1036600081E001C0880FCA95EAF70E946D06183004
:1036700010F581E09D2F977001C0880F9A95EAF7A9
:103680000E946606802F0E945C061830B8F4D7703E
:1036900081E001C0880FDA95EAF70AC080E28C0F5A
:1036A000883060F4C77081E001C0880FCA95EAF7DE
:1036B0000E946D0603C0802F0E945C06DF91CF91AF
:1036C0001F910F9108950F93FC01E851FC47E730DB
:1036D000F10590F5CB01E956FF4F0C94E22506E287
:1036E00021EE41EE6AE17CE723C007E225EE45EEDC
:1036F0006BE17CE71DC006E221EE40EE68E17CE76D
:1037000017C007E225EE44EE69E17CE711C006E24E
:1037100021EE42EE6CE17CE70BC007E225EE46EEBF
:103720006DE17CE705C008E221E045EE6EE17CE753
:103730000E94FA1A80E008C0FB018581882319F0F5
:103740001092530201C081E00F9108951F93CF930F
:10375000DF9387372CE7920721F088379C4759F091
:1037600031C0FB01C581CC2319F00E94E81B09C0C0
:103770000E94E81B18C0FB01C581CC2391F00E9478
:10378000EB1B0E942C090E94EE1BD82F0E94EB1B02
:10379000C82F0E94E81B4D2F6C2F0E94560AC0E0D4
:1037A00012C00E94EB1B0E9438090E94EE1B182FCA
:1037B0000E94EB1BD82F0E94E81B412F6D2F0E9407
:1037C000560A01C0C1E08C2FDF91CF911F9108955F
:1037D00080910C01089580910B01089580910A0158
:1037E000089590939D0180939C01089590935902B0
:1037F000809358020895E0915802F0915902309751
:1038000029F00190F081E02D0995089580E0089558
:10381000E0915802F0915902309721F00280F38133
:10382000E02D09950895E0915802F09159023097E2
:1038300039F022E0DC012C930480F581E02D09951C
:103840000895A3E0B0E0E7E2FCE10C94FF252091AD
:1038500056023091570228173907A1F0909357026A
:1038600080935602E0915802F0915902309751F03E
:1038700023E029839B838A830680F781E02DCE0194
:10388000019609952396E2E00C941B26A3E0B0E094
:10389000ECE4FCE10C94FF25209154023091550298
:1038A00028173907A1F09093550280935402E091B4
:1038B0005802F0915902309751F024E029839B83FC
:1038C0008A830680F781E02DCE0101960995239623
:1038D000E2E00C941B26FC01329697E080E09150C8
:1038E00029F021912223D9F38F5FF9CF0895662320
:1038F00049F0FC01329608962191621729F0E817E9
:10390000F907D1F780E0089581E008959C01FC015A
:1039100032969FEF80E04191461789F09F3F19F45E
:10392000411101C0982F8F5F8630A9F79F3F39F072
:10393000F901E90FF11D97FDFA9562830895089545
:103940009C012A5F3F4FFC014281461301C0128255
:10395000019682179307B9F708950E94861C08956F
:103960000E94A01C0895029626E0FC0111922A955F
:10397000E9F7089546E050E00E943A2621E0892BBD
:1039800009F420E0822F089508950E94C41C089530
:1039900083E080935A020E94C51C0895811102C0E1
:1039A00081E001C082E080935A020E94C51C089504
:1039B0000E94CE1C089581E080935A020E94C51C8B
:1039C00008950E94DB1C089508950E94E41C089548
:1039D0000E94E51C08950E94E41C0895CF930E9464
:1039E00020040E9457030E942104C0E08C2F0E94F3
:1039F0001604811104C0CF5FC830C1F701C081E057
:103A0000CF91089585B7806885BF85B7806885BFE9
:103A100008951F920F920FB60F9211248F939F93C8
:103A2000AF93BF9380915B02811113C080916B02B1
:103A300090916C02A0916D02B0916E024196A11D11
:103A4000B11D80936B0290936C02A0936D02B093B2
:103A50006E02BF91AF919F918F910F900FBE0F900B
:103A60001F90189580917302843031F10E942205D5
:103A700010925B0220E488E190E00FB6F894A895DC
:103A8000809360000FBE2093600083B7817F8460C5
:103A900083BF83B7816083BF7894889583B78E7F17
:103AA00083BF0FB6F894A8958091600088618093D9
:103AB0006000109260000FBE08950E94B4080E943A
:103AC0002705089582E084BD93E095BD9AEF97BDE8
:103AD00080936E0008952FB7F89480916B029091B7
:103AE0006C02A0916D02B0916E022FBF08952FB7A6
:103AF000F89460916B0270916C0280916D029091CC
:103B00006E022FBF08959C014FB7F89480916B020D
:103B100090916C02A0916D02B0916E024FBF821B1A
:103B2000930B0895CF92DF92EF92FF922FB7F89404
:103B3000C0906B02D0906C02E0906D02F0906E022B
:103B40002FBFA7019601261B370B480B590BCA0143
:103B5000B901FF90EF90DF90CF90089578941F9275
:103B60000F920FB60F9211248F939F93AF93BF9331
:103B700080916B0290916C02A0916D02B0916E02E7
:103B80000196A11DB11D80936B0290936C02A093CE
:103B90006D02B0936E02BF91AF919F918F910F9084
:103BA0000FBE0F901F90189581E08093E00080E297
:103BB0008093D8001092C9008FE19EE40197F1F73D
:103BC00000C0000087E090EBDC0180937C029093C2
:103BD0007D02A0937E02B0937F029CE088E10FB645
:103BE000F894A895809360000FBE90936000FFCF7B
:103BF0009CE088E10FB6F894A895809360000FBE12
:103C000090936000FFCF8091670208959B0190918F
:103C100073029430F1F48F708093E9008FEF9091EC
:103C2000E800815095FD06C095ED9A95F1F70000EA
:103C30008111F5CF8091E80085FF0BC0BA01C90161
:103C400040E050E00E94F0208091E8008E77809361
:103C5000E800089543E050E0BC0184E00E94061EA5
:103C6000089546E050E0BC0184E00E94061E0895DD
:103C7000CF93DF93EC0148E050E0BC0181E00E946B
:103C8000061E88E0FE01AFE5B2E001900D928A9534
:103C9000E1F7DF91CF910895603231F4BC0140E249
:103CA00050E082E00E94061E089580917202811108
:103CB00009C00E94C0220E941D238091E2008460FE
:103CC0008093E20008951092720208950E94E11C10
:103CD000089560916F0281E0611101C080E00E944F
:103CE000C81C08959091730281E0943009F080E03F
:103CF00060916F020E94CE1C089520915D022F5F9B
:103D0000822F62E30E94C225992319F020935D025D
:103D1000089510925D0280915E02882371F1809176
:103D20007302843041F58091E9008F702091EC009E
:103D3000922F917020FD90E8892B95E09093E900F7
:103D40009091EB0090FF14C09091EE0097FF10C08F
:103D50009091E80095FF03C01092F100F9CF909187
:103D6000E80090FF05C09091E8009E779093E800EE
:103D70008F708093E90010925E02089542E061EC3A
:103D800081E00E94392242E261EC84E00E94392203
:103D900042E261EC82E00E94392242E260EC83E080
:103DA0000E94392242E261EC85E00E943922909122
:103DB000730281E0943009F080E060916F020E940C
:103DC000D81C089580917502833009F463C030F4E3
:103DD000813071F0823009F49DC008958A3009F471
:103DE00089C08B3009F46EC0893009F0ABC020C0A7
:103DF00080917402813A09F0A5C08091E800877F24
:103E00008093E8008091780290917902892B21F4C7
:103E100068E08FE592E003C060E080E090E070E051
:103E20000E947A218091E8008B778093E8000895C2
:103E300080917402813209F085C08091780290915E
:103E40007902009719F0029709F07CC08091E80090
:103E5000877F8093E8008091E80082FD05C0809113
:103E600073028111F8CF6EC02091F3008091F200AF
:103E700090E0922B029731F48091F100813011F0A3
:103E8000863021F48091F100809367028091E800F0
:103E90008B7754C080917402813A09F053C08091AD
:103EA000780290917902892B09F04CC08091E8004A
:103EB000877F8093E8008091E80080FFFCCF8091AD
:103EC000150137C0809174028132E1F5809178024A
:103ED00090917902892BB1F58091E800877F8093DA
:103EE000E8000E946E2280917602809315010E9464
:103EF000B408089580917402813221F58091E80020
:103F0000877F8093E8000E946E22809177028093E1
:103F10006802089580917402813AA1F48091E800CA
:103F2000877F8093E8008091E80080FFFCCF80913C
:103F300068028093F1008091E8008E778093E8001A
:103F40000E946E2208959FB7F89410925E029FBF60
:103F500090917302943009F057C09091E9009F70DE
:103F60003091EC00232F217030FD20E8922B25E0CA
:103F70002093E9002091EB0020FF43C02091EE0048
:103F800027FF3FC020915C02222321F02091E8000E
:103F900025FF37C010925C0226E03091E80035FD25
:103FA00015C030917302343061F53091EB0035FD6E
:103FB00028C0215021F481E080935C0222C0EFE907
:103FC000FFE03197F1F700C00000E7CF8093F100E8
:103FD0008091E80085FD0AC08091E80080FFFCCF59
:103FE0008091E8008E778093E80006C08FB7F89440
:103FF00021E020935E028FBF9F709093E90080E0E4
:1040000008959F709093E9008FEF089584B7877F9C
:1040100084BF0FB6F894A895809160008861809362
:104020006000109260000FBE90E080E80FB6F89438
:1040300080936100909361000FBE0E94DB1C089585
:104040000E94C0220E941D23E2EEF0E08081846085
:10405000808378940E94A72508958DE091E00E94C6
:10406000F61B0895809173028530A9F48091730244
:10407000853079F40E94321D809171028823B1F35A
:104080000E94EE1C882391F30E94DA200E94B4085B
:10409000EDCF0E945D1D0895A0E2B0E0E2E5F0E200
:1040A0000C94FF2580917302843011F583E0809396
:1040B000E9008091E80082FF1BC08091E80085FF45
:1040C0000AC040E050E060E270E0CE0101960E943C
:1040D000352191E001C090E08091E8008B778093DA
:1040E000E800992329F060E2CE0101960E943E1576
:1040F000A096E2E00C941B269A0140917A0250911E
:104100007B020E9484200895492F55274330510592
:10411000C9F060F44130510581F04230510509F099
:1041200041C08BE790E04EE454E040C0413251057D
:10413000E1F04232510531F135C082E190E049ECC5
:1041400054E034C099278130910549F028F0029756
:1041500049F5E0E0F4E005C0EAE4F4E002C0E8E399
:10416000F4E0849190E0AF0121C064307105D0F497
:10417000660F771FFB01EC56FE4F4081518189E0AD
:1041800090E014C06430710568F4FB01EE0FFF1F6E
:10419000E457FE4F40815181FB01E857FE4F80817B
:1041A00090E004C080E090E040E050E0F9015183ED
:1041B0004083089580E189BD82E189BD09B400FE94
:1041C000FDCF8091D8008F7D8093D8008091E00052
:1041D00082608093E0008091E00081FDFCCF089533
:1041E000A0E0B0E0E6EFF0E20C94F925EC018B01E1
:1041F0007A010E948D22811133C0E114F10439F05B
:10420000F70180819181081B190BC80FD91FC12CA0
:10421000D12C0115110519F18091E80085FD16C01A
:104220008091E8008E778093E800E114F10449F072
:10423000F70180819181C80ED91ED182C08285E0AC
:104240000FC00E948D22882321F30AC08991809398
:10425000F10001501109FFEFCF1ADF0ADACF80E039
:10426000CDB7DEB7E8E00C941526A0E0B0E0EBE3B4
:10427000F1E20C94F925EC018B017A010E948D2268
:10428000811133C0E114F10439F0F701808191818B
:10429000081B190BC80FD91FC12CD12C01151105F2
:1042A00019F18091E80085FD16C08091E8008B77B8
:1042B0008093E800E114F10449F0F70180819181D5
:1042C000C80ED91ED182C08285E00FC00E948D2207
:1042D000882321F30AC08091F100899301501109CC
:1042E000FFEFCF1ADF0ADACF80E0CDB7DEB7E8E024
:1042F0000C94152620917A0230917B0226173707FD
:1043000048F06115710539F42091E8002E7720936B
:10431000E80001C0B901FC0120E06115710579F1E7
:10432000809173028823F1F18530F1F18091E800EA
:1043300083FD3CC08091E80082FD2EC08091E800A2
:1043400080FFEBCF2091F3008091F20090E0922B60
:104350006115710551F08830910538F42191209351
:10436000F100615071090196F3CF21E0089709F03F
:1043700020E08091E8008E778093E800CECF211175
:10438000CFCF0AC080917302882361F0853061F03D
:104390008091E80083FD0AC08091E80082FFF2CF9F
:1043A00080E0089582E0089583E0089581E0089513
:1043B00020917A0230917B022617370748F0611569
:1043C000710539F42091E8002E772093E80001C0B0
:1043D000B901FC0120E06115710591F18091730232
:1043E000882309F440C0853009F43FC08091E8007B
:1043F00083FD3DC08091E80082FD2FC08091E800E0
:1044000080FFE9CF2091F3008091F20090E0922BA1
:104410006115710559F08830910540F4249120937D
:10442000F1003196615071090196F2CF21E00897B1
:1044300009F020E08091E8008E778093E800CBCFF0
:104440002111CCCF0AC080917302882361F085309E
:1044500061F08091E80083FD0AC08091E80082FF4E
:10446000F2CF80E0089582E0089583E0089581E02E
:104470000895982F973068F59093E900981739F0D0
:104480007091EC002091ED005091F00003C0242FBA
:10449000762F50E021FD02C09F5FECCF3091EB0002
:1044A0003E7F3093EB003091ED003D7F3093ED0087
:1044B0003091EB0031603093EB007093EC0020936F
:1044C000ED005093F0002091EE0027FDE5CF80E055
:1044D00008958F708093E90081E0089580917402BF
:1044E00087FF11C08091E80082FD05C080917302B2
:1044F0008111F8CF11C08091E8008B770BC08091BB
:104500007302882349F08091E80080FFF8CF809102
:10451000E8008E778093E80008952091E4003091C0
:10452000E50095E64091EC00842F817040FF23C0A8
:104530008091E80080FD1DC080917302882399F06E
:10454000853099F08091EB0085FD11C04091E40029
:104550005091E5002417350729F3915011F09A0185
:10456000E1CF84E0089582E0089583E0089581E03A
:10457000089580E008954091E80042FFDDCF08955E
:104580000E942F230E943723E0EEF0E080818160BB
:104590008083E8EDF0E080818F77808319BCA7ED00
:1045A000B0E08C918E7F8C9380818F7E808310927F
:1045B000720208950F931F93CF93DF930E942F23CE
:1045C0000E943723C8EDD0E088818F778883888167
:1045D0008068888388818F7D888319BC10927302DC
:1045E00010926F02109271021092700200EE10E0B1
:1045F000F80180818B7F808388818160888342E09D
:1046000060E080E00E943922E1EEF0E080818E7F60
:104610008083E2EEF0E08081816080838081886029
:104620008083F80180818E7F808388818061888388
:10463000DF91CF911F910F910895E8EDF0E0808117
:104640008F7E8083E7EDF0E080818160808384E06D
:1046500082BF81E0809372020E94DA220895E8ED21
:10466000F0E080818E7F80831092E20008951092A6
:10467000DA001092E10008951F920F920FB60F9288
:1046800011242F933F934F935F936F937F938F9357
:104690009F93AF93BF93EF93FF938091E10082FFCD
:1046A0000BC08091E20082FF07C08091E1008B7F08
:1046B0008093E1000E947D1E8091DA0080FF1FC080
:1046C0008091D80080FF1BC08091DA008E7F80939C
:1046D000DA008091D90080FF0DC080E189BD82E1C0
:1046E00089BD09B400FEFDCF81E0809373020E9472
:1046F000551E05C019BC109273020E94631E809162
:10470000E10080FF19C08091E20080FF15C0809118
:10471000E2008E7F8093E2008091E20080618093CE
:10472000E2008091D80080628093D80019BC85E0B7
:10473000809373020E94691E8091E10084FF30C063
:104740008091E20084FF2CC080E189BD82E189BDB7
:1047500009B400FEFDCF8091D8008F7D8093D800F2
:104760008091E1008F7E8093E1008091E2008F7E56
:104770008093E2008091E20081608093E20080916A
:104780006F02882311F084E007C08091E30087FD69
:1047900002C081E001C083E0809373020E94721E18
:1047A0008091E10083FF29C08091E20083FF25C052
:1047B0008091E100877F8093E10082E08093730223
:1047C00010926F028091E1008E7F8093E1008091D2
:1047D000E2008E7F8093E2008091E200806180930E
:1047E000E20042E060E080E00E9439228091F00027
:1047F00088608093F0000E94661EFF91EF91BF9148
:10480000AF919F918F917F916F915F914F913F9168
:104810002F910F900FBE0F901F9018951F920F921F
:104820000FB60F9211242F933F934F935F936F9383
:104830007F938F939F93AF93BF93CF93DF93EF9328
:10484000FF93C091E900CF708091EC00D82FD17018
:1048500080FDD0E81092E9008091F000877F80937E
:10486000F00078940E9452241092E9008091F000A8
:1048700088608093F000CD2BCF70C093E900FF914A
:10488000EF91DF91CF91BF91AF919F918F917F91E8
:104890006F915F914F913F912F910F900FBE0F90AD
:1048A0001F901895AAE2B0E0E8E5F4E20C94FE252A
:1048B000E4E7F2E08091F100819322E0EC37F20727
:1048C000C9F70E94E21E8091E80083FF2EC180910B
:1048D000740290917502492F50E04A30510508F05A
:1048E00024C1FA01E256FF4F0C94E225803821F0F2
:1048F000823809F01AC108C080917002909171024B
:10490000992389F082600FC0809178028F70873080
:1049100008F00BC18093E9008091EB0085FB8827AC
:1049200080F91092E9009091E800977F9093E80059
:104930008093F1001092F100D1C0282F2D7F09F053
:10494000F4C0882319F0823061F0EFC080917602C4
:10495000813009F0EAC0933009F080E08093710261
:104960002EC08091760281112AC0809178028F70CA
:104970002FEF280F263008F0D8C08093E90020914F
:10498000EB0020FF1CC0933021F48091EB0080628B
:1049900014C09091EB0090619093EB0021E030E027
:1049A000A90102C0440F551F8A95E2F74093EA001F
:1049B0001092EA008091EB0088608093EB001092E7
:1049C000E9008091E800877F8093E8000E946E22D2
:1049D000ACC08111AAC0109176021F778091E300CC
:1049E0008078812B8093E3008091E800877F80931B
:1049F000E8000E946E228091E80080FFFCCF809149
:104A0000E30080688093E300111102C082E001C0DE
:104A100083E08093730289C08058823008F085C09B
:104A200080917602909177028C3D53E0950779F55D
:104A300083E08A838AE289834FB7F894DE01139674
:104A400020E03EE051E2E32FF0E050935700E49184
:104A500020FF03C0E295EF703F5FEF708E2F90E074
:104A6000EA3010F0C79601C0C0968D939D932F5FDA
:104A7000243149F74FBF8091E800877F8093E80099
:104A80006AE270E0CE0101960E947A2116C0609120
:104A9000780270917902AE014F5F5F4F0E947C20D7
:104AA000BC01892B09F441C09091E800977F909355
:104AB000E80089819A810E94D8218091E8008B7753
:104AC0008093E80032C0803881F58091E800877FCC
:104AD0008093E80080916F028093F1008091E8005C
:104AE0008E7772CF811121C08091760290917702EA
:104AF00099270297D4F48091E800877F8093E8009B
:104B00008091760280936F020E946E2280916F02E4
:104B1000811106C08091E30087FD02C081E001C0E1
:104B200084E0809373020E94BE1E8091E80083FFA0
:104B30000AC08091E800877F8093E8008091EB00B5
:104B400080628093EB00AA96E3E00C941A26CF9340
:104B5000809173028823A1F0C091E900CF709091F9
:104B6000EC00892F817090FD80E8C82B1092E9003D
:104B70008091E80083FD0E945224CF70C093E90029
:104B8000CF910895991B79E004C0991F961708F0FA
:104B9000961B881F7A95C9F78095089597FB072E75
:104BA00016F4009407D077FD09D00E94262607FC52
:104BB00005D03EF4909581959F4F0895709561952D
:104BC0007F4F0895EE0FFF1F0590F491E02D09949B
:104BD00069279627692778278727782708952F92AE
:104BE0003F924F925F926F927F928F929F92AF927D
:104BF000BF92CF92DF92EF92FF920F931F93CF93CA
:104C0000DF93CDB7DEB7CA1BDB0B0FB6F894DEBF60
:104C10000FBECDBF09942A88398848885F846E8486
:104C20007D848C849B84AA84B984C884DF80EE80D0
:104C3000FD800C811B81AA81B981CE0FD11D0FB6D9
:104C4000F894DEBF0FBECDBFED010895AA1BBB1BBC
:104C500051E107C0AA1FBB1FA617B70710F0A61B7C
:104C6000B70B881F991F5A95A9F780959095BC019D
:104C7000CD010895FB01DC0104C08D9101908019E4
:104C800021F441505040C8F7881B990B0895F999B9
:104C9000FECF92BD81BDF89A992780B50895A8E10D
:104CA000B0E042E050E00C948B26DC01A40FB51F6D
:104CB0004150504048F0CB01840F951F2E910E9427
:104CC000662641505040D0F70895262FF999FECF1F
:104CD00092BD81BDF89A019700B4021639F01FBA4F
:104CE00020BD0FB6F894FA9AF99A0FBE089503966C
:104CF000272F0E9466260E946526252F0E94662681
:104D0000242F0C9466260196272F0E9466260C9469
:104D10006526DC01CB01FC01F999FECF06C0F2BD8E
:104D2000E1BDF89A319600B40D9241505040B8F769
:064D30000895F894FFCF86
:104D36002202280850011E0A1401030201031E382C
:104D46001E311E2A1E01E200E900EA00B500B60087
:104D5600B700CD008301CC008A01920194012102A3
:104D6600230224022502260227022A02B300B400E7
:104D76006F0070009F01CB019F02A002818283E237
:104D860000E900EA00B500B600B700CD008301CC0B
:104D9600008A01920194012102230224022502269F
:104DA6000227022A02B300B4006F0070009F01CBF5
:104DB600019F02A00281828340227B229A05FD0484
:0C4DC6001F05DB04600479049904B204AA
:00000001FF
